{
  "_format": "hh-sol-artifact-1",
  "contractName": "BadgeNFT",
  "sourceName": "contracts/BadgeNFT.sol",
  "abi": [
    {
      "inputs": [],
      "stateMutability": "nonpayable",
      "type": "constructor"
    },
    {
      "inputs": [
        {
          "internalType": "address",
          "name": "sender",
          "type": "address"
        },
        {
          "internalType": "uint256",
          "name": "tokenId",
          "type": "uint256"
        },
        {
          "internalType": "address",
          "name": "owner",
          "type": "address"
        }
      ],
      "name": "ERC721IncorrectOwner",
      "type": "error"
    },
    {
      "inputs": [
        {
          "internalType": "address",
          "name": "operator",
          "type": "address"
        },
        {
          "internalType": "uint256",
          "name": "tokenId",
          "type": "uint256"
        }
      ],
      "name": "ERC721InsufficientApproval",
      "type": "error"
    },
    {
      "inputs": [
        {
          "internalType": "address",
          "name": "approver",
          "type": "address"
        }
      ],
      "name": "ERC721InvalidApprover",
      "type": "error"
    },
    {
      "inputs": [
        {
          "internalType": "address",
          "name": "operator",
          "type": "address"
        }
      ],
      "name": "ERC721InvalidOperator",
      "type": "error"
    },
    {
      "inputs": [
        {
          "internalType": "address",
          "name": "owner",
          "type": "address"
        }
      ],
      "name": "ERC721InvalidOwner",
      "type": "error"
    },
    {
      "inputs": [
        {
          "internalType": "address",
          "name": "receiver",
          "type": "address"
        }
      ],
      "name": "ERC721InvalidReceiver",
      "type": "error"
    },
    {
      "inputs": [
        {
          "internalType": "address",
          "name": "sender",
          "type": "address"
        }
      ],
      "name": "ERC721InvalidSender",
      "type": "error"
    },
    {
      "inputs": [
        {
          "internalType": "uint256",
          "name": "tokenId",
          "type": "uint256"
        }
      ],
      "name": "ERC721NonexistentToken",
      "type": "error"
    },
    {
      "inputs": [
        {
          "internalType": "address",
          "name": "owner",
          "type": "address"
        }
      ],
      "name": "OwnableInvalidOwner",
      "type": "error"
    },
    {
      "inputs": [
        {
          "internalType": "address",
          "name": "account",
          "type": "address"
        }
      ],
      "name": "OwnableUnauthorizedAccount",
      "type": "error"
    },
    {
      "anonymous": false,
      "inputs": [
        {
          "indexed": true,
          "internalType": "address",
          "name": "owner",
          "type": "address"
        },
        {
          "indexed": true,
          "internalType": "address",
          "name": "approved",
          "type": "address"
        },
        {
          "indexed": true,
          "internalType": "uint256",
          "name": "tokenId",
          "type": "uint256"
        }
      ],
      "name": "Approval",
      "type": "event"
    },
    {
      "anonymous": false,
      "inputs": [
        {
          "indexed": true,
          "internalType": "address",
          "name": "owner",
          "type": "address"
        },
        {
          "indexed": true,
          "internalType": "address",
          "name": "operator",
          "type": "address"
        },
        {
          "indexed": false,
          "internalType": "bool",
          "name": "approved",
          "type": "bool"
        }
      ],
      "name": "ApprovalForAll",
      "type": "event"
    },
    {
      "anonymous": false,
      "inputs": [
        {
          "indexed": true,
          "internalType": "uint256",
          "name": "badgeId",
          "type": "uint256"
        },
        {
          "indexed": false,
          "internalType": "string",
          "name": "name",
          "type": "string"
        },
        {
          "indexed": false,
          "internalType": "uint256",
          "name": "tier",
          "type": "uint256"
        }
      ],
      "name": "BadgeCreated",
      "type": "event"
    },
    {
      "anonymous": false,
      "inputs": [
        {
          "indexed": true,
          "internalType": "address",
          "name": "user",
          "type": "address"
        },
        {
          "indexed": true,
          "internalType": "uint256",
          "name": "badgeId",
          "type": "uint256"
        }
      ],
      "name": "BadgeMinted",
      "type": "event"
    },
    {
      "anonymous": false,
      "inputs": [
        {
          "indexed": true,
          "internalType": "address",
          "name": "previousOwner",
          "type": "address"
        },
        {
          "indexed": true,
          "internalType": "address",
          "name": "newOwner",
          "type": "address"
        }
      ],
      "name": "OwnershipTransferred",
      "type": "event"
    },
    {
      "anonymous": false,
      "inputs": [
        {
          "indexed": true,
          "internalType": "address",
          "name": "from",
          "type": "address"
        },
        {
          "indexed": true,
          "internalType": "address",
          "name": "to",
          "type": "address"
        },
        {
          "indexed": true,
          "internalType": "uint256",
          "name": "tokenId",
          "type": "uint256"
        }
      ],
      "name": "Transfer",
      "type": "event"
    },
    {
      "inputs": [],
      "name": "BADGE_EARLY_ADOPTER",
      "outputs": [
        {
          "internalType": "uint256",
          "name": "",
          "type": "uint256"
        }
      ],
      "stateMutability": "view",
      "type": "function"
    },
    {
      "inputs": [],
      "name": "BADGE_MONAD_STAKER",
      "outputs": [
        {
          "internalType": "uint256",
          "name": "",
          "type": "uint256"
        }
      ],
      "stateMutability": "view",
      "type": "function"
    },
    {
      "inputs": [],
      "name": "BADGE_VETERAN",
      "outputs": [
        {
          "internalType": "uint256",
          "name": "",
          "type": "uint256"
        }
      ],
      "stateMutability": "view",
      "type": "function"
    },
    {
      "inputs": [],
      "name": "BADGE_ZK_KYC",
      "outputs": [
        {
          "internalType": "uint256",
          "name": "",
          "type": "uint256"
        }
      ],
      "stateMutability": "view",
      "type": "function"
    },
    {
      "inputs": [
        {
          "internalType": "address",
          "name": "to",
          "type": "address"
        },
        {
          "internalType": "uint256",
          "name": "tokenId",
          "type": "uint256"
        }
      ],
      "name": "approve",
      "outputs": [],
      "stateMutability": "nonpayable",
      "type": "function"
    },
    {
      "inputs": [],
      "name": "badgeCounter",
      "outputs": [
        {
          "internalType": "uint256",
          "name": "",
          "type": "uint256"
        }
      ],
      "stateMutability": "view",
      "type": "function"
    },
    {
      "inputs": [
        {
          "internalType": "uint256",
          "name": "",
          "type": "uint256"
        }
      ],
      "name": "badges",
      "outputs": [
        {
          "internalType": "string",
          "name": "name",
          "type": "string"
        },
        {
          "internalType": "string",
          "name": "description",
          "type": "string"
        },
        {
          "internalType": "uint256",
          "name": "tier",
          "type": "uint256"
        },
        {
          "internalType": "string",
          "name": "metadataURI",
          "type": "string"
        }
      ],
      "stateMutability": "view",
      "type": "function"
    },
    {
      "inputs": [
        {
          "internalType": "address",
          "name": "owner",
          "type": "address"
        }
      ],
      "name": "balanceOf",
      "outputs": [
        {
          "internalType": "uint256",
          "name": "",
          "type": "uint256"
        }
      ],
      "stateMutability": "view",
      "type": "function"
    },
    {
      "inputs": [
        {
          "internalType": "uint256",
          "name": "tokenId",
          "type": "uint256"
        }
      ],
      "name": "getApproved",
      "outputs": [
        {
          "internalType": "address",
          "name": "",
          "type": "address"
        }
      ],
      "stateMutability": "view",
      "type": "function"
    },
    {
      "inputs": [
        {
          "internalType": "uint256",
          "name": "_badgeId",
          "type": "uint256"
        }
      ],
      "name": "getBadge",
      "outputs": [
        {
          "components": [
            {
              "internalType": "string",
              "name": "name",
              "type": "string"
            },
            {
              "internalType": "string",
              "name": "description",
              "type": "string"
            },
            {
              "internalType": "uint256",
              "name": "tier",
              "type": "uint256"
            },
            {
              "internalType": "string",
              "name": "metadataURI",
              "type": "string"
            }
          ],
          "internalType": "struct BadgeNFT.Badge",
          "name": "",
          "type": "tuple"
        }
      ],
      "stateMutability": "view",
      "type": "function"
    },
    {
      "inputs": [
        {
          "internalType": "address",
          "name": "_user",
          "type": "address"
        }
      ],
      "name": "getUserBadgeCount",
      "outputs": [
        {
          "internalType": "uint256",
          "name": "",
          "type": "uint256"
        }
      ],
      "stateMutability": "view",
      "type": "function"
    },
    {
      "inputs": [
        {
          "internalType": "address",
          "name": "_user",
          "type": "address"
        }
      ],
      "name": "getUserBadges",
      "outputs": [
        {
          "internalType": "uint256[]",
          "name": "",
          "type": "uint256[]"
        }
      ],
      "stateMutability": "view",
      "type": "function"
    },
    {
      "inputs": [
        {
          "internalType": "address",
          "name": "",
          "type": "address"
        },
        {
          "internalType": "uint256",
          "name": "",
          "type": "uint256"
        }
      ],
      "name": "hasBadge",
      "outputs": [
        {
          "internalType": "bool",
          "name": "",
          "type": "bool"
        }
      ],
      "stateMutability": "view",
      "type": "function"
    },
    {
      "inputs": [
        {
          "internalType": "address",
          "name": "owner",
          "type": "address"
        },
        {
          "internalType": "address",
          "name": "operator",
          "type": "address"
        }
      ],
      "name": "isApprovedForAll",
      "outputs": [
        {
          "internalType": "bool",
          "name": "",
          "type": "bool"
        }
      ],
      "stateMutability": "view",
      "type": "function"
    },
    {
      "inputs": [
        {
          "internalType": "address",
          "name": "_user",
          "type": "address"
        },
        {
          "internalType": "uint256",
          "name": "_badgeId",
          "type": "uint256"
        }
      ],
      "name": "mintBadge",
      "outputs": [],
      "stateMutability": "nonpayable",
      "type": "function"
    },
    {
      "inputs": [],
      "name": "name",
      "outputs": [
        {
          "internalType": "string",
          "name": "",
          "type": "string"
        }
      ],
      "stateMutability": "view",
      "type": "function"
    },
    {
      "inputs": [],
      "name": "owner",
      "outputs": [
        {
          "internalType": "address",
          "name": "",
          "type": "address"
        }
      ],
      "stateMutability": "view",
      "type": "function"
    },
    {
      "inputs": [
        {
          "internalType": "uint256",
          "name": "tokenId",
          "type": "uint256"
        }
      ],
      "name": "ownerOf",
      "outputs": [
        {
          "internalType": "address",
          "name": "",
          "type": "address"
        }
      ],
      "stateMutability": "view",
      "type": "function"
    },
    {
      "inputs": [],
      "name": "renounceOwnership",
      "outputs": [],
      "stateMutability": "nonpayable",
      "type": "function"
    },
    {
      "inputs": [
        {
          "internalType": "address",
          "name": "from",
          "type": "address"
        },
        {
          "internalType": "address",
          "name": "to",
          "type": "address"
        },
        {
          "internalType": "uint256",
          "name": "tokenId",
          "type": "uint256"
        }
      ],
      "name": "safeTransferFrom",
      "outputs": [],
      "stateMutability": "nonpayable",
      "type": "function"
    },
    {
      "inputs": [
        {
          "internalType": "address",
          "name": "from",
          "type": "address"
        },
        {
          "internalType": "address",
          "name": "to",
          "type": "address"
        },
        {
          "internalType": "uint256",
          "name": "tokenId",
          "type": "uint256"
        },
        {
          "internalType": "bytes",
          "name": "data",
          "type": "bytes"
        }
      ],
      "name": "safeTransferFrom",
      "outputs": [],
      "stateMutability": "nonpayable",
      "type": "function"
    },
    {
      "inputs": [
        {
          "internalType": "address",
          "name": "operator",
          "type": "address"
        },
        {
          "internalType": "bool",
          "name": "approved",
          "type": "bool"
        }
      ],
      "name": "setApprovalForAll",
      "outputs": [],
      "stateMutability": "nonpayable",
      "type": "function"
    },
    {
      "inputs": [
        {
          "internalType": "bytes4",
          "name": "interfaceId",
          "type": "bytes4"
        }
      ],
      "name": "supportsInterface",
      "outputs": [
        {
          "internalType": "bool",
          "name": "",
          "type": "bool"
        }
      ],
      "stateMutability": "view",
      "type": "function"
    },
    {
      "inputs": [],
      "name": "symbol",
      "outputs": [
        {
          "internalType": "string",
          "name": "",
          "type": "string"
        }
      ],
      "stateMutability": "view",
      "type": "function"
    },
    {
      "inputs": [
        {
          "internalType": "uint256",
          "name": "tokenId",
          "type": "uint256"
        }
      ],
      "name": "tokenURI",
      "outputs": [
        {
          "internalType": "string",
          "name": "",
          "type": "string"
        }
      ],
      "stateMutability": "view",
      "type": "function"
    },
    {
      "inputs": [
        {
          "internalType": "address",
          "name": "from",
          "type": "address"
        },
        {
          "internalType": "address",
          "name": "to",
          "type": "address"
        },
        {
          "internalType": "uint256",
          "name": "tokenId",
          "type": "uint256"
        }
      ],
      "name": "transferFrom",
      "outputs": [],
      "stateMutability": "nonpayable",
      "type": "function"
    },
    {
      "inputs": [
        {
          "internalType": "address",
          "name": "newOwner",
          "type": "address"
        }
      ],
      "name": "transferOwnership",
      "outputs": [],
      "stateMutability": "nonpayable",
      "type": "function"
    },
    {
      "inputs": [
        {
          "internalType": "address",
          "name": "",
          "type": "address"
        },
        {
          "internalType": "uint256",
          "name": "",
          "type": "uint256"
        }
      ],
      "name": "userBadges",
      "outputs": [
        {
          "internalType": "uint256",
          "name": "",
          "type": "uint256"
        }
      ],
      "stateMutability": "view",
      "type": "function"
    },
    {
      "inputs": [
        {
          "internalType": "address",
          "name": "_user",
          "type": "address"
        },
        {
          "internalType": "uint256",
          "name": "_badgeId",
          "type": "uint256"
        }
      ],
      "name": "userHasBadge",
      "outputs": [
        {
          "internalType": "bool",
          "name": "",
          "type": "bool"
        }
      ],
      "stateMutability": "view",
      "type": "function"
    }
  ],
  "bytecode": "0x60806040523480156200001157600080fd5b50336040518060400160405280601081526020016f4d6f6e616420466c6f7720426164676560801b8152506040518060400160405280600381526020016226a32160e91b81525081600090816200006991906200046a565b5060016200007882826200046a565b5050506001600160a01b038116620000aa57604051631e4fbdf760e01b81526000600482015260240160405180910390fd5b620000b58162000292565b506200010b604051806040016040528060068152602001655a4b2d4b594360d01b815250604051806060016040528060288152602001620022cb60289139604080516020810190915260008152600290620002e4565b506200017d6040518060400160405280600c81526020016b26b7b730b21029ba30b5b2b960a11b815250604051806040016040528060118152602001705374616b6564204d4f4e20746f6b656e7360781b815250600360405180602001604052806000815250620002e460201b60201c565b506200020c6040518060400160405280601381526020017f43726f73732d436861696e205665746572616e000000000000000000000000008152506040518060400160405280601981526020017f416374697665206f6e206d756c7469706c6520636861696e7300000000000000815250600260405180602001604052806000815250620002e460201b60201c565b506200028b6040518060400160405280600d81526020016c22b0b9363c9020b237b83a32b960991b8152506040518060400160405280601681526020017f4f6e65206f662074686520666972737420757365727300000000000000000000815250600160405180602001604052806000815250620002e460201b60201c565b50620005b5565b600680546001600160a01b038381166001600160a01b0319831681179093556040519116919082907f8be0079c531659141344cd1fd0a4f28419497f9722a3daafe3b4186f6b6457e090600090a35050565b600a805460009182620002f78362000536565b909155505060408051608081018252868152602080820187905281830186905260608201859052600a546000908152600790915291909120815181906200033f90826200046a565b50602082015160018201906200035690826200046a565b5060408201516002820155606082015160038201906200037790826200046a565b50905050600a547f59d6c8b90ef188e0013d1193601cd05db4487b8fb1cb66c954fedc054f01f8228685604051620003b19291906200055e565b60405180910390a250600a54949350505050565b634e487b7160e01b600052604160045260246000fd5b600181811c90821680620003f057607f821691505b6020821081036200041157634e487b7160e01b600052602260045260246000fd5b50919050565b601f8211156200046557600081815260208120601f850160051c81016020861015620004405750805b601f850160051c820191505b8181101562000461578281556001016200044c565b5050505b505050565b81516001600160401b03811115620004865762000486620003c5565b6200049e81620004978454620003db565b8462000417565b602080601f831160018114620004d65760008415620004bd5750858301515b600019600386901b1c1916600185901b17855562000461565b600085815260208120601f198616915b828110156200050757888601518255948401946001909101908401620004e6565b5085821015620005265787850151600019600388901b60f8161c191681555b5050505050600190811b01905550565b6000600182016200055757634e487b7160e01b600052601160045260246000fd5b5060010190565b604081526000835180604084015260005b818110156200058e57602081870181015160608684010152016200056f565b506000606082850101526060601f19601f8301168401019150508260208301529392505050565b611d0680620005c56000396000f3fe608060405234801561001057600080fd5b50600436106101cf5760003560e01c80638d83862211610104578063c87b56dd116100a2578063e5ed988411610071578063e5ed988414610436578063e985e9c51461043f578063f2fde38b14610452578063fbccd77b1461046557600080fd5b8063c87b56dd146103f5578063c971effc14610408578063df91cc2314610410578063e42bff661461042357600080fd5b806398e36d8b116100de57806398e36d8b14610373578063a22cb46514610396578063b2b6b3e1146103a9578063b88d4fde146103e257600080fd5b80638d8386221461033a5780638da5cb5b1461035a57806395d89b411461036b57600080fd5b806342842e0e11610171578063696795751161014b57806369679575146102ee57806370a0823114610317578063715018a61461032a5780637e6d7eb71461033257600080fd5b806342842e0e1461029a5780634c6a70ce146102ad5780636352211e146102db57600080fd5b8063095ea7b3116101ad578063095ea7b31461023c57806323b872dd1461025157806337c245fe146102645780633e197bfe1461028457600080fd5b806301ffc9a7146101d457806306fdde03146101fc578063081812fc14610211575b600080fd5b6101e76101e23660046117f9565b61046d565b60405190151581526020015b60405180910390f35b6102046104bf565b6040516101f3919061186d565b61022461021f366004611880565b610551565b6040516001600160a01b0390911681526020016101f3565b61024f61024a3660046118b5565b61057a565b005b61024f61025f3660046118df565b610589565b61027761027236600461191b565b610619565b6040516101f39190611936565b61028c600481565b6040519081526020016101f3565b61024f6102a83660046118df565b610685565b6101e76102bb3660046118b5565b600960209081526000928352604080842090915290825290205460ff1681565b6102246102e9366004611880565b6106a5565b61028c6102fc36600461191b565b6001600160a01b031660009081526008602052604090205490565b61028c61032536600461191b565b6106b0565b61024f6106f8565b61028c600281565b61034d610348366004611880565b61070c565b6040516101f3919061197a565b6006546001600160a01b0316610224565b610204610967565b610386610381366004611880565b610976565b6040516101f394939291906119dc565b61024f6103a4366004611a26565b610b36565b6101e76103b73660046118b5565b6001600160a01b03919091166000908152600960209081526040808320938352929052205460ff1690565b61024f6103f0366004611a78565b610b41565b610204610403366004611880565b610b59565b61028c600381565b61028c61041e3660046118b5565b610df0565b61024f6104313660046118b5565b610e21565b61028c600a5481565b6101e761044d366004611b54565b610fa3565b61024f61046036600461191b565b610fd1565b61028c600181565b60006001600160e01b031982166380ac58cd60e01b148061049e57506001600160e01b03198216635b5e139f60e01b145b806104b957506301ffc9a760e01b6001600160e01b03198316145b92915050565b6060600080546104ce90611b87565b80601f01602080910402602001604051908101604052809291908181526020018280546104fa90611b87565b80156105475780601f1061051c57610100808354040283529160200191610547565b820191906000526020600020905b81548152906001019060200180831161052a57829003601f168201915b5050505050905090565b600061055c8261100f565b506000828152600460205260409020546001600160a01b03166104b9565b610585828233611048565b5050565b6001600160a01b0382166105b857604051633250574960e11b8152600060048201526024015b60405180910390fd5b60006105c5838333611055565b9050836001600160a01b0316816001600160a01b031614610613576040516364283d7b60e01b81526001600160a01b03808616600483015260248201849052821660448201526064016105af565b50505050565b6001600160a01b03811660009081526008602090815260409182902080548351818402810184019094528084526060939283018282801561067957602002820191906000526020600020905b815481526020019060010190808311610665575b50505050509050919050565b6106a083838360405180602001604052806000815250610b41565b505050565b60006104b98261100f565b60006001600160a01b0382166106dc576040516322718ad960e21b8152600060048201526024016105af565b506001600160a01b031660009081526003602052604090205490565b6107006110cf565b61070a60006110fc565b565b6107376040518060800160405280606081526020016060815260200160008152602001606081525090565b6000821180156107495750600a548211155b6107885760405162461bcd60e51b815260206004820152601060248201526f125b9d985b1a590818985919d948125160821b60448201526064016105af565b600082815260076020526040908190208151608081019092528054829082906107b090611b87565b80601f01602080910402602001604051908101604052809291908181526020018280546107dc90611b87565b80156108295780601f106107fe57610100808354040283529160200191610829565b820191906000526020600020905b81548152906001019060200180831161080c57829003601f168201915b5050505050815260200160018201805461084290611b87565b80601f016020809104026020016040519081016040528092919081815260200182805461086e90611b87565b80156108bb5780601f10610890576101008083540402835291602001916108bb565b820191906000526020600020905b81548152906001019060200180831161089e57829003601f168201915b50505050508152602001600282015481526020016003820180546108de90611b87565b80601f016020809104026020016040519081016040528092919081815260200182805461090a90611b87565b80156109575780601f1061092c57610100808354040283529160200191610957565b820191906000526020600020905b81548152906001019060200180831161093a57829003601f168201915b5050505050815250509050919050565b6060600180546104ce90611b87565b60076020526000908152604090208054819061099190611b87565b80601f01602080910402602001604051908101604052809291908181526020018280546109bd90611b87565b8015610a0a5780601f106109df57610100808354040283529160200191610a0a565b820191906000526020600020905b8154815290600101906020018083116109ed57829003601f168201915b505050505090806001018054610a1f90611b87565b80601f0160208091040260200160405190810160405280929190818152602001828054610a4b90611b87565b8015610a985780601f10610a6d57610100808354040283529160200191610a98565b820191906000526020600020905b815481529060010190602001808311610a7b57829003601f168201915b505050505090806002015490806003018054610ab390611b87565b80601f0160208091040260200160405190810160405280929190818152602001828054610adf90611b87565b8015610b2c5780601f10610b0157610100808354040283529160200191610b2c565b820191906000526020600020905b815481529060010190602001808311610b0f57829003601f168201915b5050505050905084565b61058533838361114e565b610b4c848484610589565b61061333858585856111ed565b60606000610b66836106a5565b6001600160a01b031603610bb35760405162461bcd60e51b8152602060048201526014602482015273151bdad95b88191bd95cc81b9bdd08195e1a5cdd60621b60448201526064016105af565b6000610bc2620f424084611bd7565b9050600060076000838152602001908152602001600020604051806080016040529081600082018054610bf490611b87565b80601f0160208091040260200160405190810160405280929190818152602001828054610c2090611b87565b8015610c6d5780601f10610c4257610100808354040283529160200191610c6d565b820191906000526020600020905b815481529060010190602001808311610c5057829003601f168201915b50505050508152602001600182018054610c8690611b87565b80601f0160208091040260200160405190810160405280929190818152602001828054610cb290611b87565b8015610cff5780601f10610cd457610100808354040283529160200191610cff565b820191906000526020600020905b815481529060010190602001808311610ce257829003601f168201915b5050505050815260200160028201548152602001600382018054610d2290611b87565b80601f0160208091040260200160405190810160405280929190818152602001828054610d4e90611b87565b8015610d9b5780601f10610d7057610100808354040283529160200191610d9b565b820191906000526020600020905b815481529060010190602001808311610d7e57829003601f168201915b505050505081525050905060008160600151511115610dbf57606001519392505050565b610dc882611318565b604051602001610dd89190611bf9565b60405160208183030381529060405292505050919050565b60086020528160005260406000208181548110610e0c57600080fd5b90600052602060002001600091509150505481565b610e296110cf565b600081118015610e3b5750600a548111155b610e7a5760405162461bcd60e51b815260206004820152601060248201526f125b9d985b1a590818985919d948125160821b60448201526064016105af565b6001600160a01b038216600090815260096020908152604080832084845290915290205460ff1615610eee5760405162461bcd60e51b815260206004820152601b60248201527f5573657220616c7265616479206861732074686973206261646765000000000060448201526064016105af565b6001600160a01b038216600090815260086020526040812054610f1483620f4240611c4c565b610f1e9190611c63565b9050610f2a83826113ab565b6001600160a01b03831660008181526008602090815260408083208054600181810183559185528385200187905584845260098352818420878552909252808320805460ff1916909217909155518492917fc5e5b314108c1f776c2302351b8278910ddb812b122b2717b1bc973146145e9a91a3505050565b6001600160a01b03918216600090815260056020908152604080832093909416825291909152205460ff1690565b610fd96110cf565b6001600160a01b03811661100357604051631e4fbdf760e01b8152600060048201526024016105af565b61100c816110fc565b50565b6000818152600260205260408120546001600160a01b0316806104b957604051637e27328960e01b8152600481018490526024016105af565b6106a083838360016113c5565b6000828152600260205260408120546001600160a01b031680156110bb5760405162461bcd60e51b815260206004820152601b60248201527f42616467657320617265206e6f6e2d7472616e7366657261626c65000000000060448201526064016105af565b6110c68585856114cb565b95945050505050565b6006546001600160a01b0316331461070a5760405163118cdaa760e01b81523360048201526024016105af565b600680546001600160a01b038381166001600160a01b0319831681179093556040519116919082907f8be0079c531659141344cd1fd0a4f28419497f9722a3daafe3b4186f6b6457e090600090a35050565b6001600160a01b03821661118057604051630b61174360e31b81526001600160a01b03831660048201526024016105af565b6001600160a01b03838116600081815260056020908152604080832094871680845294825291829020805460ff191686151590811790915591519182527f17307eab39ab6107e8899845ad3d59bd9653f200f220920489ca2b5937696c31910160405180910390a3505050565b6001600160a01b0383163b1561131157604051630a85bd0160e11b81526001600160a01b0384169063150b7a029061122f908890889087908790600401611c76565b6020604051808303816000875af192505050801561126a575060408051601f3d908101601f1916820190925261126791810190611cb3565b60015b6112d3573d808015611298576040519150601f19603f3d011682016040523d82523d6000602084013e61129d565b606091505b5080516000036112cb57604051633250574960e11b81526001600160a01b03851660048201526024016105af565b805160208201fd5b6001600160e01b03198116630a85bd0160e11b1461130f57604051633250574960e11b81526001600160a01b03851660048201526024016105af565b505b5050505050565b60606000611325836115c4565b600101905060008167ffffffffffffffff81111561134557611345611a62565b6040519080825280601f01601f19166020018201604052801561136f576020820181803683370190505b5090508181016020015b600019016f181899199a1a9b1b9c1cb0b131b232b360811b600a86061a8153600a850494508461137957509392505050565b61058582826040518060200160405280600081525061169c565b80806113d957506001600160a01b03821615155b1561149b5760006113e98461100f565b90506001600160a01b038316158015906114155750826001600160a01b0316816001600160a01b031614155b801561142857506114268184610fa3565b155b156114515760405163a9fbf51f60e01b81526001600160a01b03841660048201526024016105af565b81156114995783856001600160a01b0316826001600160a01b03167f8c5be1e5ebec7d5bd14f71427d1e84f3dd0314c0f7b2291e5b200ac8c7c3b92560405160405180910390a45b505b5050600090815260046020526040902080546001600160a01b0319166001600160a01b0392909216919091179055565b6000828152600260205260408120546001600160a01b03908116908316156114f8576114f88184866116b4565b6001600160a01b03811615611536576115156000856000806113c5565b6001600160a01b038116600090815260036020526040902080546000190190555b6001600160a01b03851615611565576001600160a01b0385166000908152600360205260409020805460010190555b60008481526002602052604080822080546001600160a01b0319166001600160a01b0389811691821790925591518793918516917fddf252ad1be2c89b69c2b068fc378daa952ba7f163c4a11628f55a4df523b3ef91a4949350505050565b60008072184f03e93ff9f4daa797ed6e38ed64bf6a1f0160401b83106116035772184f03e93ff9f4daa797ed6e38ed64bf6a1f0160401b830492506040015b6d04ee2d6d415b85acef8100000000831061162f576d04ee2d6d415b85acef8100000000830492506020015b662386f26fc10000831061164d57662386f26fc10000830492506010015b6305f5e1008310611665576305f5e100830492506008015b612710831061167957612710830492506004015b6064831061168b576064830492506002015b600a83106104b95760010192915050565b6116a68383611718565b6106a03360008585856111ed565b6116bf83838361177d565b6106a0576001600160a01b0383166116ed57604051637e27328960e01b8152600481018290526024016105af565b60405163177e802f60e01b81526001600160a01b0383166004820152602481018290526044016105af565b6001600160a01b03821661174257604051633250574960e11b8152600060048201526024016105af565b600061175083836000611055565b90506001600160a01b038116156106a0576040516339e3563760e11b8152600060048201526024016105af565b60006001600160a01b038316158015906117db5750826001600160a01b0316846001600160a01b031614806117b757506117b78484610fa3565b806117db57506000828152600460205260409020546001600160a01b038481169116145b949350505050565b6001600160e01b03198116811461100c57600080fd5b60006020828403121561180b57600080fd5b8135611816816117e3565b9392505050565b60005b83811015611838578181015183820152602001611820565b50506000910152565b6000815180845261185981602086016020860161181d565b601f01601f19169290920160200192915050565b6020815260006118166020830184611841565b60006020828403121561189257600080fd5b5035919050565b80356001600160a01b03811681146118b057600080fd5b919050565b600080604083850312156118c857600080fd5b6118d183611899565b946020939093013593505050565b6000806000606084860312156118f457600080fd5b6118fd84611899565b925061190b60208501611899565b9150604084013590509250925092565b60006020828403121561192d57600080fd5b61181682611899565b6020808252825182820181905260009190848201906040850190845b8181101561196e57835183529284019291840191600101611952565b50909695505050505050565b60208152600082516080602084015261199660a0840182611841565b90506020840151601f19808584030160408601526119b48383611841565b9250604086015160608601526060860151915080858403016080860152506110c68282611841565b6080815260006119ef6080830187611841565b8281036020840152611a018187611841565b90508460408401528281036060840152611a1b8185611841565b979650505050505050565b60008060408385031215611a3957600080fd5b611a4283611899565b915060208301358015158114611a5757600080fd5b809150509250929050565b634e487b7160e01b600052604160045260246000fd5b60008060008060808587031215611a8e57600080fd5b611a9785611899565b9350611aa560208601611899565b925060408501359150606085013567ffffffffffffffff80821115611ac957600080fd5b818701915087601f830112611add57600080fd5b813581811115611aef57611aef611a62565b604051601f8201601f19908116603f01168101908382118183101715611b1757611b17611a62565b816040528281528a6020848701011115611b3057600080fd5b82602086016020830137600060208483010152809550505050505092959194509250565b60008060408385031215611b6757600080fd5b611b7083611899565b9150611b7e60208401611899565b90509250929050565b600181811c90821680611b9b57607f821691505b602082108103611bbb57634e487b7160e01b600052602260045260246000fd5b50919050565b634e487b7160e01b600052601160045260246000fd5b600082611bf457634e487b7160e01b600052601260045260246000fd5b500490565b7f68747470733a2f2f6d6f6e6164666c6f772e78797a2f6d657461646174612f62815264616467652f60d81b602082015260008251611c3f81602585016020870161181d565b9190910160250192915050565b80820281158282048414176104b9576104b9611bc1565b808201808211156104b9576104b9611bc1565b6001600160a01b0385811682528416602082015260408101839052608060608201819052600090611ca990830184611841565b9695505050505050565b600060208284031215611cc557600080fd5b8151611816816117e356fea2646970667358221220c52a98f2721e8344c9b8fcbec3533e8d4528e98460c3d0f0c12147fc9c4a48a364736f6c6343000814003356657269666965642068756d616e2077697468207a65726f2d6b6e6f776c656467652070726f6f66",
  "linkReferences": {},
  "deployedLinkReferences": {}
}