{
  "_format": "hh-sol-artifact-1",
  "contractName": "QuestManager",
  "sourceName": "contracts/QuestManager.sol",
  "abi": [
    {
      "inputs": [],
      "stateMutability": "nonpayable",
      "type": "constructor"
    },
    {
      "inputs": [
        {
          "internalType": "address",
          "name": "owner",
          "type": "address"
        }
      ],
      "name": "OwnableInvalidOwner",
      "type": "error"
    },
    {
      "inputs": [
        {
          "internalType": "address",
          "name": "account",
          "type": "address"
        }
      ],
      "name": "OwnableUnauthorizedAccount",
      "type": "error"
    },
    {
      "inputs": [],
      "name": "ReentrancyGuardReentrantCall",
      "type": "error"
    },
    {
      "anonymous": false,
      "inputs": [
        {
          "indexed": true,
          "internalType": "uint256",
          "name": "questId",
          "type": "uint256"
        },
        {
          "indexed": true,
          "internalType": "address",
          "name": "creator",
          "type": "address"
        },
        {
          "indexed": false,
          "internalType": "uint256",
          "name": "amount",
          "type": "uint256"
        }
      ],
      "name": "FundsWithdrawn",
      "type": "event"
    },
    {
      "anonymous": false,
      "inputs": [
        {
          "indexed": true,
          "internalType": "address",
          "name": "previousOwner",
          "type": "address"
        },
        {
          "indexed": true,
          "internalType": "address",
          "name": "newOwner",
          "type": "address"
        }
      ],
      "name": "OwnershipTransferred",
      "type": "event"
    },
    {
      "anonymous": false,
      "inputs": [
        {
          "indexed": true,
          "internalType": "uint256",
          "name": "questId",
          "type": "uint256"
        },
        {
          "indexed": true,
          "internalType": "address",
          "name": "user",
          "type": "address"
        },
        {
          "indexed": false,
          "internalType": "uint256",
          "name": "rewardAmount",
          "type": "uint256"
        }
      ],
      "name": "QuestCompleted",
      "type": "event"
    },
    {
      "anonymous": false,
      "inputs": [
        {
          "indexed": true,
          "internalType": "uint256",
          "name": "questId",
          "type": "uint256"
        },
        {
          "indexed": true,
          "internalType": "address",
          "name": "creator",
          "type": "address"
        },
        {
          "indexed": false,
          "internalType": "uint256",
          "name": "rewardAmount",
          "type": "uint256"
        }
      ],
      "name": "QuestCreated",
      "type": "event"
    },
    {
      "anonymous": false,
      "inputs": [
        {
          "indexed": true,
          "internalType": "uint256",
          "name": "questId",
          "type": "uint256"
        }
      ],
      "name": "QuestDeactivated",
      "type": "event"
    },
    {
      "inputs": [
        {
          "internalType": "uint256",
          "name": "_questId",
          "type": "uint256"
        },
        {
          "internalType": "address",
          "name": "_user",
          "type": "address"
        },
        {
          "internalType": "bytes32",
          "name": "_txHash",
          "type": "bytes32"
        }
      ],
      "name": "completeQuest",
      "outputs": [],
      "stateMutability": "nonpayable",
      "type": "function"
    },
    {
      "inputs": [
        {
          "internalType": "string",
          "name": "_title",
          "type": "string"
        },
        {
          "internalType": "string",
          "name": "_description",
          "type": "string"
        },
        {
          "internalType": "uint256",
          "name": "_rewardAmount",
          "type": "uint256"
        },
        {
          "internalType": "address",
          "name": "_rewardToken",
          "type": "address"
        },
        {
          "internalType": "uint256",
          "name": "_maxCompletions",
          "type": "uint256"
        }
      ],
      "name": "createQuest",
      "outputs": [
        {
          "internalType": "uint256",
          "name": "",
          "type": "uint256"
        }
      ],
      "stateMutability": "payable",
      "type": "function"
    },
    {
      "inputs": [
        {
          "internalType": "uint256",
          "name": "_questId",
          "type": "uint256"
        }
      ],
      "name": "deactivateQuest",
      "outputs": [],
      "stateMutability": "nonpayable",
      "type": "function"
    },
    {
      "inputs": [
        {
          "internalType": "address",
          "name": "_user",
          "type": "address"
        }
      ],
      "name": "getUserQuests",
      "outputs": [
        {
          "internalType": "uint256[]",
          "name": "",
          "type": "uint256[]"
        }
      ],
      "stateMutability": "view",
      "type": "function"
    },
    {
      "inputs": [
        {
          "internalType": "uint256",
          "name": "_questId",
          "type": "uint256"
        },
        {
          "internalType": "address",
          "name": "_user",
          "type": "address"
        }
      ],
      "name": "hasUserCompletedQuest",
      "outputs": [
        {
          "internalType": "bool",
          "name": "",
          "type": "bool"
        }
      ],
      "stateMutability": "view",
      "type": "function"
    },
    {
      "inputs": [],
      "name": "owner",
      "outputs": [
        {
          "internalType": "address",
          "name": "",
          "type": "address"
        }
      ],
      "stateMutability": "view",
      "type": "function"
    },
    {
      "inputs": [],
      "name": "platformFee",
      "outputs": [
        {
          "internalType": "uint256",
          "name": "",
          "type": "uint256"
        }
      ],
      "stateMutability": "view",
      "type": "function"
    },
    {
      "inputs": [],
      "name": "questCounter",
      "outputs": [
        {
          "internalType": "uint256",
          "name": "",
          "type": "uint256"
        }
      ],
      "stateMutability": "view",
      "type": "function"
    },
    {
      "inputs": [
        {
          "internalType": "uint256",
          "name": "",
          "type": "uint256"
        }
      ],
      "name": "quests",
      "outputs": [
        {
          "internalType": "uint256",
          "name": "id",
          "type": "uint256"
        },
        {
          "internalType": "address",
          "name": "creator",
          "type": "address"
        },
        {
          "internalType": "string",
          "name": "title",
          "type": "string"
        },
        {
          "internalType": "string",
          "name": "description",
          "type": "string"
        },
        {
          "internalType": "uint256",
          "name": "rewardAmount",
          "type": "uint256"
        },
        {
          "internalType": "address",
          "name": "rewardToken",
          "type": "address"
        },
        {
          "internalType": "uint256",
          "name": "totalBudget",
          "type": "uint256"
        },
        {
          "internalType": "uint256",
          "name": "remainingBudget",
          "type": "uint256"
        },
        {
          "internalType": "bool",
          "name": "isActive",
          "type": "bool"
        },
        {
          "internalType": "uint256",
          "name": "createdAt",
          "type": "uint256"
        }
      ],
      "stateMutability": "view",
      "type": "function"
    },
    {
      "inputs": [],
      "name": "renounceOwnership",
      "outputs": [],
      "stateMutability": "nonpayable",
      "type": "function"
    },
    {
      "inputs": [
        {
          "internalType": "uint256",
          "name": "_newFee",
          "type": "uint256"
        }
      ],
      "name": "setPlatformFee",
      "outputs": [],
      "stateMutability": "nonpayable",
      "type": "function"
    },
    {
      "inputs": [
        {
          "internalType": "address",
          "name": "newOwner",
          "type": "address"
        }
      ],
      "name": "transferOwnership",
      "outputs": [],
      "stateMutability": "nonpayable",
      "type": "function"
    },
    {
      "inputs": [
        {
          "internalType": "uint256",
          "name": "",
          "type": "uint256"
        },
        {
          "internalType": "address",
          "name": "",
          "type": "address"
        }
      ],
      "name": "userCompletedQuest",
      "outputs": [
        {
          "internalType": "bool",
          "name": "",
          "type": "bool"
        }
      ],
      "stateMutability": "view",
      "type": "function"
    },
    {
      "inputs": [
        {
          "internalType": "address",
          "name": "",
          "type": "address"
        },
        {
          "internalType": "uint256",
          "name": "",
          "type": "uint256"
        }
      ],
      "name": "userQuests",
      "outputs": [
        {
          "internalType": "uint256",
          "name": "",
          "type": "uint256"
        }
      ],
      "stateMutability": "view",
      "type": "function"
    },
    {
      "inputs": [
        {
          "internalType": "uint256",
          "name": "_questId",
          "type": "uint256"
        }
      ],
      "name": "withdrawRemainingFunds",
      "outputs": [],
      "stateMutability": "nonpayable",
      "type": "function"
    }
  ],
  "bytecode": "0x608060405260fa60065534801561001557600080fd5b50338061003c57604051631e4fbdf760e01b81526000600482015260240160405180910390fd5b6100458161004f565b506001805561009f565b600080546001600160a01b038381166001600160a01b0319831681178455604051919092169283917f8be0079c531659141344cd1fd0a4f28419497f9722a3daafe3b4186f6b6457e09190a35050565b6114f1806100ae6000396000f3fe6080604052600436106100e85760003560e01c806397cf96031161008a578063e085f98011610059578063e085f98014610276578063e9d2821d146102ac578063eb22a726146102cc578063f2fde38b146102ec57600080fd5b806397cf9603146101d85780639f4d5856146101eb578063b01493851461020b578063bd798a3f1461025657600080fd5b80636a44dc34116100c65780636a44dc3414610165578063715018a6146101855780637d7591f01461019a5780638da5cb5b146101b057600080fd5b806312e8e2c3146100ed57806326232a2e1461010f5780634e08dab014610138575b600080fd5b3480156100f957600080fd5b5061010d610108366004610fe9565b61030c565b005b34801561011b57600080fd5b5061012560065481565b6040519081526020015b60405180910390f35b34801561014457600080fd5b5061015861015336600461101e565b610368565b60405161012f9190611040565b34801561017157600080fd5b5061010d610180366004611084565b6103d4565b34801561019157600080fd5b5061010d610792565b3480156101a657600080fd5b5061012560055481565b3480156101bc57600080fd5b506000546040516001600160a01b03909116815260200161012f565b6101256101e636600461115c565b6107a6565b3480156101f757600080fd5b506101256102063660046111e2565b610a3d565b34801561021757600080fd5b5061024661022636600461120c565b600360209081526000928352604080842090915290825290205460ff1681565b604051901515815260200161012f565b34801561026257600080fd5b5061010d610271366004610fe9565b610a6e565b34801561028257600080fd5b50610296610291366004610fe9565b610c70565b60405161012f9a9998979695949392919061127e565b3480156102b857600080fd5b5061010d6102c7366004610fe9565b610de8565b3480156102d857600080fd5b506102466102e736600461120c565b610eda565b3480156102f857600080fd5b5061010d61030736600461101e565b610f07565b610314610f42565b6103e88111156103635760405162461bcd60e51b81526020600482015260156024820152744665652063616e6e6f74206578636565642031302560581b60448201526064015b60405180910390fd5b600655565b6001600160a01b0381166000908152600460209081526040918290208054835181840281018401909452808452606093928301828280156103c857602002820191906000526020600020905b8154815260200190600101908083116103b4575b50505050509050919050565b6103dc610f6f565b6000838152600260205260409020600881015460ff166104345760405162461bcd60e51b81526020600482015260136024820152725175657374206973206e6f742061637469766560681b604482015260640161035a565b60008481526003602090815260408083206001600160a01b038716845290915290205460ff16156104b15760405162461bcd60e51b815260206004820152602160248201527f5573657220616c726561647920636f6d706c65746564207468697320717565736044820152601d60fa1b606482015260840161035a565b8060040154816007015410156105095760405162461bcd60e51b815260206004820152601d60248201527f496e73756666696369656e74206275646765742072656d61696e696e67000000604482015260640161035a565b60008481526003602090815260408083206001600160a01b03871684528252808320805460ff19166001908117909155600480845291842080549182018155845291832090910186905560065490830154612710916105679161130e565b6105719190611325565b905060008183600401546105859190611347565b9050826004015483600701600082825461059f9190611347565b909155505060058301546001600160a01b03166106f5576000856001600160a01b03168260405160006040518083038185875af1925050503d8060008114610603576040519150601f19603f3d011682016040523d82523d6000602084013e610608565b606091505b50509050806106525760405162461bcd60e51b815260206004820152601660248201527514995dd85c99081d1c985b9cd9995c8819985a5b195960521b604482015260640161035a565b82156106f357600080546040516001600160a01b039091169085908381818185875af1925050503d80600081146106a5576040519150601f19603f3d011682016040523d82523d6000602084013e6106aa565b606091505b50509050806106f15760405162461bcd60e51b8152602060048201526013602482015272119959481d1c985b9cd9995c8819985a5b1959606a1b604482015260640161035a565b505b505b846001600160a01b0316867fcb2c52dd8818d9521b16e6d9c1eafc75e9c0857efe79bd0df13ad93e4da692138360405161073191815260200190565b60405180910390a38260040154836007015410156107815760088301805460ff1916905560405186907ffe9e2f781236bffd062f9dfcd0b9b06f51589ac3187e0cb8532d990a0d3fe96490600090a25b50505061078d60018055565b505050565b61079a610f42565b6107a46000610f99565b565b60008084116107f75760405162461bcd60e51b815260206004820152601d60248201527f526577617264206d7573742062652067726561746572207468616e2030000000604482015260640161035a565b600082116108565760405162461bcd60e51b815260206004820152602660248201527f4d617820636f6d706c6574696f6e73206d75737420626520677265617465722060448201526507468616e20360d41b606482015260840161035a565b6000610862838661130e565b90506001600160a01b0384166108c257803410156108c25760405162461bcd60e51b815260206004820152601760248201527f496e73756666696369656e742066756e64732073656e74000000000000000000604482015260640161035a565b600580549060006108d28361135a565b909155505060408051610140810182526005548082523360208084019182528385018c8152606085018c9052608085018b90526001600160a01b038a811660a087015260c0860188905260e08601889052600161010087018190524261012088015260009586526002938490529690942085518155925195830180546001600160a01b031916969094169590951790925592519192919082019061097690826113fb565b506060820151600382019061098b90826113fb565b506080820151600482015560a0820151600580830180546001600160a01b0319166001600160a01b039093169290921790915560c0830151600683015560e0830151600783015561010083015160088301805460ff191691151591909117905561012090920151600990910155546040518681523391907f8611ab57bc82cba189efe93ed2768ca2aee3cfbff8227866a8b3400d0d14ed069060200160405180910390a3505060055495945050505050565b60046020528160005260406000208181548110610a5957600080fd5b90600052602060002001600091509150505481565b610a76610f6f565b600081815260026020526040902060018101546001600160a01b03163314610ae05760405162461bcd60e51b815260206004820152601960248201527f4f6e6c792063726561746f722063616e20776974686472617700000000000000604482015260640161035a565b600881015460ff1615610b355760405162461bcd60e51b815260206004820152601f60248201527f5175657374206d75737420626520646561637469766174656420666972737400604482015260640161035a565b6000816007015411610b805760405162461bcd60e51b81526020600482015260146024820152734e6f2066756e647320746f20776974686472617760601b604482015260640161035a565b600781018054600090915560058201546001600160a01b0316610c2b57604051600090339083908381818185875af1925050503d8060008114610bdf576040519150601f19603f3d011682016040523d82523d6000602084013e610be4565b606091505b5050905080610c295760405162461bcd60e51b815260206004820152601160248201527015da5d1a191c985dd85b0819985a5b1959607a1b604482015260640161035a565b505b604051818152339084907ff440aec6b52895984d061d622e6edeba6210f7c3e059be920663140c084560d79060200160405180910390a35050610c6d60018055565b50565b600260208190526000918252604090912080546001820154928201805491936001600160a01b03169291610ca390611373565b80601f0160208091040260200160405190810160405280929190818152602001828054610ccf90611373565b8015610d1c5780601f10610cf157610100808354040283529160200191610d1c565b820191906000526020600020905b815481529060010190602001808311610cff57829003601f168201915b505050505090806003018054610d3190611373565b80601f0160208091040260200160405190810160405280929190818152602001828054610d5d90611373565b8015610daa5780601f10610d7f57610100808354040283529160200191610daa565b820191906000526020600020905b815481529060010190602001808311610d8d57829003601f168201915b50505060048401546005850154600686015460078701546008880154600990980154969793966001600160a01b0390931695509093509160ff16908a565b600081815260026020526040902060018101546001600160a01b03163314610e525760405162461bcd60e51b815260206004820152601b60248201527f4f6e6c792063726561746f722063616e20646561637469766174650000000000604482015260640161035a565b600881015460ff16610e9f5760405162461bcd60e51b8152602060048201526016602482015275517565737420616c726561647920696e61637469766560501b604482015260640161035a565b60088101805460ff1916905560405182907ffe9e2f781236bffd062f9dfcd0b9b06f51589ac3187e0cb8532d990a0d3fe96490600090a25050565b60008281526003602090815260408083206001600160a01b038516845290915290205460ff165b92915050565b610f0f610f42565b6001600160a01b038116610f3957604051631e4fbdf760e01b81526000600482015260240161035a565b610c6d81610f99565b6000546001600160a01b031633146107a45760405163118cdaa760e01b815233600482015260240161035a565b600260015403610f9257604051633ee5aeb560e01b815260040160405180910390fd5b6002600155565b600080546001600160a01b038381166001600160a01b0319831681178455604051919092169283917f8be0079c531659141344cd1fd0a4f28419497f9722a3daafe3b4186f6b6457e09190a35050565b600060208284031215610ffb57600080fd5b5035919050565b80356001600160a01b038116811461101957600080fd5b919050565b60006020828403121561103057600080fd5b61103982611002565b9392505050565b6020808252825182820181905260009190848201906040850190845b818110156110785783518352928401929184019160010161105c565b50909695505050505050565b60008060006060848603121561109957600080fd5b833592506110a960208501611002565b9150604084013590509250925092565b634e487b7160e01b600052604160045260246000fd5b600082601f8301126110e057600080fd5b813567ffffffffffffffff808211156110fb576110fb6110b9565b604051601f8301601f19908116603f01168101908282118183101715611123576111236110b9565b8160405283815286602085880101111561113c57600080fd5b836020870160208301376000602085830101528094505050505092915050565b600080600080600060a0868803121561117457600080fd5b853567ffffffffffffffff8082111561118c57600080fd5b61119889838a016110cf565b965060208801359150808211156111ae57600080fd5b506111bb888289016110cf565b945050604086013592506111d160608701611002565b949793965091946080013592915050565b600080604083850312156111f557600080fd5b6111fe83611002565b946020939093013593505050565b6000806040838503121561121f57600080fd5b8235915061122f60208401611002565b90509250929050565b6000815180845260005b8181101561125e57602081850181015186830182015201611242565b506000602082860101526020601f19601f83011685010191505092915050565b8a81526001600160a01b038a81166020830152610140604083018190526000916112aa8483018d611238565b915083820360608501526112be828c611238565b608085019a909a529790971660a08301525060c081019490945260e084019290925215156101008301526101209091015250949350505050565b634e487b7160e01b600052601160045260246000fd5b8082028115828204841417610f0157610f016112f8565b60008261134257634e487b7160e01b600052601260045260246000fd5b500490565b81810381811115610f0157610f016112f8565b60006001820161136c5761136c6112f8565b5060010190565b600181811c9082168061138757607f821691505b6020821081036113a757634e487b7160e01b600052602260045260246000fd5b50919050565b601f82111561078d57600081815260208120601f850160051c810160208610156113d45750805b601f850160051c820191505b818110156113f3578281556001016113e0565b505050505050565b815167ffffffffffffffff811115611415576114156110b9565b611429816114238454611373565b846113ad565b602080601f83116001811461145e57600084156114465750858301515b600019600386901b1c1916600185901b1785556113f3565b600085815260208120601f198616915b8281101561148d5788860151825594840194600190910190840161146e565b50858210156114ab5787850151600019600388901b60f8161c191681555b5050505050600190811b0190555056fea26469706673582212205fb53f48deb76b2107bece78dbbd643ed9e2b9530f59107e71038f6ecabadcb364736f6c63430008140033",
  "linkReferences": {},
  "deployedLinkReferences": {}
}